:020000040000FA
:100000000010001001030000C1000000C10000004A
:1000100000000000000000000000000000000000E0
:100020000000000000000000000000007912000045
:100030000000000000000000C1000000C10000003E
:10004000C1000000C1000000C1000000C1000000AC
:10005000C1000000C1000000C1000000C10000009C
:10006000C1000000C1000000C1000000C10000008C
:10007000C1000000C1000000C1000000C500000078
:10008000CD01000051020000C1000000D9130000A2
:10009000C1000000ED140000C1000000C10000001C
:1000A000C1000000C1000000C1000000C10000004C
:1000B000C1000000C1000000C1000000C10000003C
:1000C000FEE70000F0B4012189074C683E4A002396
:1000D000906C282C20D006DC082C12D0102C10D0CC
:1000E000182C07D118E00425402C3BD0502C43D0CD
:1000F000582C50D0102008605372D06C401CD06433
:100100005DE08370C37042784468531C4370A05C08
:1001100088602020886152E08478002C09D04278E1
:100120004468531C4370A25C8A608278521E8270BD
:1001300045E0457846686C1CE4B24470755D002D5E
:1001400007D0102D16D104786406640E0470537223
:1001500010E0621C335DD2B28370531C4370B05CFC
:1001600088602CE042784468531C4370A25C827023
:10017000002A24D00D6022E0CE6AC4788768631C10
:10018000C3703E55926C9078401E0006000E907031
:1001900015D18D6113E0CE6AC57887686C1CC47078
:1001A0007E55906C457846686C1C4470745D102CCC
:1001B00004D105786D066D0E057053720C60082031
:1001C0008861F0BC70470000000000101B490868FF
:1001D00008601B482222825EC96A1B4B09B2418417
:1001E000891A184A8A189A4204D2002101642021EF
:1001F000C1717047154AFF238A182C339A4202D2E4
:10020000017A491C17E00A46653AC72AF1D2C37938
:10021000002BEED0026C5200C82901DD012100E064
:1002200000210A435B1E19060264090EC171E0D168
:100230007F21C943426401727047000000C0004042
:1002400000000010EBFAFFFFBB02000017FCFFFFED
:100250001B49086808601B482022825EC96A1B4B44
:1002600009B20184891A184A8A189A4204D20021D4
:100270008163202141717047154AFF238A182C336E
:100280009A4202D28179491C17E00A46653AC72A88
:10029000F1D24379002BEED0826B5200C82901DDE8
:1002A000012100E000210A435B1E19068263090E4A
:1002B0004171E0D17F21C943C26381717047000061
:1002C0000000014000000010EBFAFFFFBB0200003D
:1002D00017FCFFFF0000000000000000000000000D
:1002E000000000000000000000000000000000000E
:1002F000000000000000000000000000FFFFFFFF02
:10030000F9499AB011200861F84923208860F84A19
:10031000906B802398439063C868C007FCD0F54A6F
:100320000320106301205063F2480022426301223F
:100330004263F24AF0481060F14A012010615061B6
:1003400000205061012050610246ED488261022088
:100350004860EA4801228261EA4CF0222261D22000
:10036000E061E262E84820636063E848C260C0255B
:10037000056105624562C12282624263422686634C
:10038000C663E348C32606600661C226466105626D
:10039000D12545628262656113208001A063FB2044
:1003A000DC4A00011060AF20DB4A80001060F124BD
:1003B000DA4A24011460DA4A1063086B400703D557
:1003C000D84900200860FEE75F21D748C9030160D3
:1003D000D649C005C861D748D549016103218907BD
:1003E000C1600121C9034161D449D3484860032059
:1003F0000860D448D249C160012444600021D24A37
:10040000FF20D183D14DD170E030E8600620A86292
:100410006C60FF26CE4DE036EE60A8626C605171D4
:100420009171D163D17111722D25A4075164256199
:100430004B25656140252560C41F5472D1649472B8
:10044000D172C44A78241470517090708020D0709A
:100450005071D071557291720720D0721020BE4F2A
:1004600010753A46BE4B1078BC4918708120087050
:1004700054783F25921C16789C7088701B1D547808
:10048000091D1E7008706D1EF4D17F217A5CB4497D
:10049000FE23CA54B34906914870B349B34A087061
:1004A0004A606A1E84390A7300224A73B1497A236A
:1004B0000B704A7006238B708023CB704B71CB710D
:1004C00040234B728A720722CA7210220A75AA4B05
:1004D000AA491C780C704870A54F4A1C5C783F25CF
:1004E0009B1C1E788C709070091D5C78121D0E701C
:1004F00010706D1EF4D1A04A7F21535C9F4AFE21EB
:1005000053549F4981201491487038709D499648F2
:1005100079600146C760C161843887649A48802544
:10052000C5601A21016098490B20C8604720886087
:1005300005204860844900208873954A9349916159
:100540000721C901D1610A4691490A620721904AEF
:10055000C9015162032656618E4A0E2151638C4AAD
:100560000121516007218C4AC901118051808B4AB9
:100570000F21117051708A4900220A701146884A71
:10058000517005273F07396A00295DD000226E4966
:1005900001240A70834A48701070507088700C8271
:1005A0008149824A0C704C7006211170804B517049
:1005B000591E02224870891C0870521EFAD105216A
:1005C0001971022159717B4A9E711146DD714031CA
:1005D0001091794918320F468037C03109970E9132
:1005E00076490F9208917649644A079111462A315B
:1005F0001391891C1291891C11910C390D91891C40
:100600000C91891C0B912032891C554805920A9146
:100610000146E0310191203920300091049072B6FA
:10062000AA21464881605521816062B64648C1785A
:10063000CA43D20722D0002908D005221207926AA5
:100640000B46934310D034E00122A0E705210907AF
:100650008A6A0A2191432CD001710121C170394964
:1006600089683C31C18324E001221143C17000211B
:100670000171344989683C31C1831AE0314A936879
:10068000C28BD21A12B2002A027918DD002A08D0D1
:1006900005210907896A8A4301D0027109E0002116
:1006A00006E005221207926A0A4202D1490849006F
:1006B000C17006214156002914DA00219EE0514202
:1006C000114002297ED00829F2D1394B0122DA717A
:1006D0000378002BECD0354B06241C705C708272C2
:1006E0000273E5E787E06DE040810440008004404C
:1006F0000082044040800440FF9701008080044055
:10070000C08004400040044001020000404004401A
:10071000804004400080005000800150C03E0050E6
:10072000C00A01500008015000E100E000ED00E0C7
:100730004040000000E400E07F4F12000040004015
:100740003F1F000000400140000000100000014079
:1007500000C00040A40000105C1A0000BB000010A4
:10076000BA000010B801001084000010481A000000
:1007700094000010BA010010DC1A0000D001001033
:10078000CE020010521A000000800040FF05000059
:1007900000800140408001402E0000101800001031
:1007A0001C000010120000101400001016000010B1
:1007B00064000010F0190000F0170000AF000010F6
:1007C000C5010010F84A0023D3710278002A88D0AE
:1007D000F64A1478062C01D3137001E0641C1470DF
:1007E0005478062C01D3537001E0641C547001222C
:1007F000827202735CE7052958DD491E8171EC4A5B
:10080000C16B891817D0FF229200891A0AD0FF29DC
:100810004CD1E6490978002949D0012914D0022990
:1008200044D162E0E149097800295ED001293ED037
:1008300002297FD108E0DD490978002904D0012987
:1008400053D0022976D132E0D74ADA4B1178491CCD
:1008500011709C685179D84A5143D84A6118116087
:10086000D24905220A7099684B22D2008918D44ACD
:100870001180D44914220A70D34A99151160D34AC1
:10088000002111700723D24CDB012380D14C0F23B0
:100890002370D14B1960D14B1980D14B109919603D
:1008A000D049099B0B6001211170817242E0BE4961
:1008B0008A78521C8A7004224E390A70C34A002179
:1008C00011700723C24CDB0123800F24131F1C70FF
:1008D000643319604A3B198042330F991960083B11
:1008E000099919600121117023E0AF49B24C4A788F
:1008F000521C4A70B14A89791368614359181160D2
:10090000AA4903220A70B14B002119700722B04C8A
:10091000D20122800F241A1F1470643211604A3AE7
:100920001180B14942321160083A0E9911600121DB
:1009300019708172AD4908200856002803DAAB48C7
:100940000021017204E0A94905285ADD401E087201
:10095000A649974A486C801817D0FF229200801A47
:100960000AD0FF284DD19148407800284AD001286C
:1009700014D0022845D164E08C484078002860D02B
:1009800001283FD002283CD108E088484078002860
:1009900004D0012855D0022878D133E0824802786B
:1009A000521C0270834A93684079834C6043181844
:1009B000824B58607D480523437090684B22D200DB
:1009C00080187F4A50807F48142242700120884A54
:1009D000800210607D4A0020507007247C4BE401A7
:1009E0005C800F24131F5C70643358604A3B58804E
:1009F0007B48109B43607B4B0998586001205070E6
:100A0000087343E0684A00239078401C9070674860
:100A100004224270801D437007226D4CD201628017
:100A20000F22041F62706C4A53604A3A538042326C
:100A30000F9B5360083A099B5360012242700A736E
:100A400024E059485C4C4278521C42705B4A8079E1
:100A500053686043181850605448032242700023C2
:100A6000801D437007225A4CD20162800F22041F5E
:100A70006270594A53604A3A53805B4B423253602A
:100A8000083A0E9B5360012242700A73594800785D
:100A9000002806D001286ED15648574941600021F0
:100AA0000170524F0B20385600287ADB53490B2037
:100AB0003856420052185278120673D50B22BA5695
:100AC000520051184A785206520E4A700B88C107DC
:100AD0000A0F49490A710207520F103240068A7103
:100AE000400FB03008721804010E48060012BF22F1
:100AF000000E114001293FD006290DD0072920D032
:100B000004220898FF214170801C0170521EFAD106
:100B1000384980200870C5E100210424384D1B06A7
:100B2000089A5B0D1E460E43AE5D464056704E1C45
:100B30001E43AE5D921C4640891C1670641EF1D1A6
:100B4000E6E7042600212E4C75021B06089A5B0D71
:100B50001F460F433F197F193F78474057704F1C7E
:100B60001F433F197F193F78921C4740891C17701B
:100B7000761EEDD1CCE7CFE000210424214D1B06E9
:100B8000089A5B0D1E460E43AE5D464056704E1CE5
:100B90001E43AE5D921C4640891C1670641EF1D146
:100BA000B6E738E030E000006400001016000010E6
:100BB0001BE508F700400140701700005C000010C2
:100BC0002A00001012000010000400501C00001049
:100BD0002E000010180000107C00001032000010E1
:100BE000740000106C000010F019000000000010EC
:100BF0000010005084000010A4000010BA00001083
:100C00005C1E00005C2E0000401C40B2F872002800
:100C100000DB4CE746E1B87A00287DD0F749087838
:100C200006280ED3F6484024811E401E8123002250
:100C30008A708370091D001D0A700370641EF7D14D
:100C4000A7E0C101EF480B18ED481A780270812225
:100C50004270411C5C783F259B1C1E7884708A7012
:100C6000001D5C78091D06700A706D1EF4D1E34901
:100C70007F200B78E349DC0161180C5CE049FE2021
:100C80000C540698002B427004D0012B21D0022B6B
:100C90007FD159E052220A7086204870049B1A7056
:100CA000049B87225A706F238B70C870049CA370BA
:100CB000049BDA7063230B714871049C2371049BBD
:100CC0005A716B238B71C871049883710498C27137
:100CD0005FE053220A7086204870049B87241A70B4
:100CE000049A547063228A70C870049B9A70049AA4
:100CF000D47069220A714871049B1A71049A547164
:100D000073228A71C871049B9A71049BDC710A7208
:100D10004872049B1A7200E0C4E0049B5C726F236B
:100D20008B72C872049DAB72049BDC7272230B73CE
:100D30004873049D2B73049B5C738A73C873049877
:100D400082730498C47324E05020087086224A708D
:100D5000049B1870049B8720587061238B70CA70A5
:100D6000049CA370049BD87070230B714A71049C7F
:100D70002371049B587165238B71CA71049CA37104
:100D8000049BD87172230B724A7204990B720499F6
:100D900048723878002877D0F96C080F0A2801D2F9
:100DA000302200E037221018009A86231070009A33
:100DB0005370019A10700198872242700801000F49
:100DC0000A2801D2302400E037242018009CA070AB
:100DD000009CE370019CA0700198C2700802000F93
:100DE0000A2801D2302400E037242018009C20710A
:100DF000009C6371019C2071019842710803000FEF
:100E00000A2801D2302400E0372424180098847185
:100E10000098C371019884710198C2710804000F91
:100E20000A2801D2302400E037242018009C2072C8
:100E3000009C6372019C2072019842720805000FA9
:100E40000A2801D2302400E037242018009CA07228
:100E5000009CE372019CA0720198C2720806000F08
:100E60000A2801D2302400E037242018009C207387
:100E7000009C6373019C2073019842730807000F64
:100E80000A2802D2302101E009E037210818009930
:100E900088730099CB73019988730198C2730020FD
:100EA000F872B8725848007C002806D001286ED12C
:100EB0005548564941610021017455480D2141565C
:100EC00000297ADB534B0D2141564A00D218527843
:100ED000120674D50D2282565000C0184278520670
:100EE000520E42700388C807020F484802710A0771
:100EF000520F103249068271490FB0310172180445
:100F0000010E48060012BF22000E114001293FD0F9
:100F100006290DD0072920D004220798FF2141700F
:100F2000801C0170521EFAD137498020087441E1BB
:100F300000210424384D1B06079A5B0D1E460E4304
:100F4000AE5D464056704E1C1E43AE5D921C464040
:100F5000891C1670641EF1D1E6E7042600212E4C90
:100F600075021B06079A5B0D1F460F433F197F1939
:100F70003F78474057704F1C1F433F197F193F78F8
:100F8000921C4740891C1770761EEDD1CCE79FE07C
:100F900000210424214D1B06079A5B0D1E460E43BB
:100FA000AE5D464056704E1C1E43AE5D921C4640E0
:100FB000891C1670641EF1D1B6E707E0FFE7491CF3
:100FC00049B24173002900DB7DE7F3E01048007B64
:100FD00000287DD009484178062921D30D484023B7
:100FE000811E401E812200248C708270091D001D0C
:100FF0000C7002705B1EF7D1D8E0000016000010E4
:10100000BA0000105C1B000084000010BA01001040
:1010100000000010D00100105C1E00005C2E0000DB
:101020008D48C9010B188D4F1A783A7081227A7059
:10103000791C5C7838463F259B1C1E7884708A702A
:10104000001D5C78091D06700A706D1EF4D184487D
:10105000814B40787F21C401E3185B5CFE217B5407
:10106000149900284A7004D0012821D0022873D195
:1010700073E05220387086217970059A1070059AB5
:10108000872050706F22BA70F970059B9A70059A8C
:10109000D07063223A717971059B1A71059A50716B
:1010A0006B22BA71F97105998A710599C8717DE051
:1010B0005320387069498620487005985321017083
:1010C000059987204870654963208870862100E073
:1010D00070E0624AD170222150540D9887214170EE
:1010E00069201146087186215171242150540C98B1
:1010F000872141707320114688718621D171262184
:1011000050540B9887214170732011460872862134
:101110005172282150540A98872141706F2011463E
:1011200088728621D1722A215054139887214170E8
:10113000722011460873862151732C215054129845
:10114000872141707320114688738621D1732E2127
:1011500050548721119828E028E0502139708620CA
:1011600078702022B954059A8721517061223B4B37
:10117000BA70D8702223FA540D9A384B51707022ED
:101180003A7158712423FA540C9A344B51706522E9
:10119000BA71D8712623FA540B9A304B51707222CF
:1011A0003A72587228203A540A9841702D4900200A
:1011B000487308732B4909200856002808DA2A4882
:1011C00080683C22101A00B2002816DC0020487209
:1011D000487A002811D1886CC068886402781206A9
:1011E00004D4C06888640278120606D501224A72C7
:1011F000002242702022500602600E228A56002AE7
:1012000015DA194880688B8C181A00B200280EDC99
:10121000521C50B28873002809D11448452202603C
:10122000134A5378036093780360D2780260088A87
:1012300042085040C007400C10430882820707D084
:1012400083070C4A88789B0F135401225040887002
:1012500000DFFFF7E4F900005C1B0000D001001084
:101260001600001000000010004001400080004007
:101270005000001014000010F0B44A494A4A0023FC
:10128000CB5E90684B25181A04B2ED004748002C3D
:1012900012DC5B19464C0B802368002B00D05315E1
:1012A000444E33600378002B06D05B1E0370236826
:1012B000FF260136734023600223CB5E94681C1B1B
:1012C00024B2002C13DC5B194B803B490B68002BCC
:1012D00001D00123DB02394C23604378002B06D078
:1012E0005B1E4370086801239B0258400860344924
:1012F000087800282BD1334C0846E679457801233D
:10130000002E18D03048012E23D0002D1FD0264AA1
:10131000056892682D4FAE1A2A4A547912797C4397
:101320007A43002E26DC2A4F3E78042E1BD82D1936
:10133000056006251CE08020E071002D07D000200C
:101340004870234A0620107050708B720B73F0BCEB
:1013500070478126E671002DD9D14B7094680460E6
:1013600094684460D3E7AD1805601A4D2D786D1E62
:101370003D708B720C4D4668AD68751B002DE6DC28
:10138000134D6F78042F03D832194260062004E011
:10139000B21842600F484078401E68700B73F0BC72
:1013A000704700002A0000100040014012000010A9
:1013B00000040050000800500010005000200050B1
:1013C00000000010640000105C00001070170000A6
:1013D0001600001014000010F0B4394A3948118882
:1013E000C161518841620168016037490D78072465
:1013F000364F374BE4013748002D05D0364D2E8847
:10140000002E32D0761E2E804D78002D05D0324D24
:101410006E88002E3ED0761E6E8006782F4D3049A5
:101420000C2E0ED2B600AE591F78BE400F68F619CA
:101430000E602C4ECF783668F657B700F61936197D
:10144000168040780C280ED2800028585B7898408F
:101450004B68C01848602348C979406840568100ED
:10146000401800195080F0BC70471F4E2E803D6818
:101470002E786D1C3D6035072D0F0F2DC4D0361111
:1014800005701E700D2DBFD100250D700F25057044
:101490001480B9E7144E6E807D682E786D1C7D60D7
:1014A00035072D0F0F2DB8D0361145705E700D2DFC
:1014B000B3D100254D700F2141705480ADE700007D
:1014C0002E000010008001401C000010740000106D
:1014D0001A0000101800001032000010C0170000A1
:1014E0007C0000106C00001012040000F0B5AA4847
:1014F00083B083680E210B40A849A94ECA8C0D8D7C
:101500001446521C366892B2022B7BD0042B13D0A7
:10151000062B01D00C2B0DD14269D20703D00268F3
:101520004269D207FBD10020C04388739D48806880
:101530003C30888403B0F0BD974F38689A4BC0B2F6
:10154000187084463868C0B2587002903868C0B2CB
:101550009870019038680E27C0B2D8700090CF57AD
:101560009248BF1C052F7DD23B007B441B79DB18C2
:101570009F447F09021906008B486246502A0CD00E
:101580000020C04388738848026889480260854803
:1015900080683C30888403B0F0BD026884480260F3
:1015A00001208873BFE0804A814B12681A601A7864
:1015B000552A18D00BDC442A25D0502A52D0522A62
:1015C000B1D199784907490F405C5870ABE0572A70
:1015D00001D0772AA7D199785B784907490F4354FE
:1015E000772AD8D09FE058786D4A8000001D088582
:1015F00000201060C8846B4880683C3088840120DB
:10160000C043ACE09BE05A780F469200121D0A8559
:101610005C8872B6AA2367498B6055238B6062B6DB
:10162000002A19D064490023D50705D063075B0F52
:10163000C35C491C0B70012352080DD0E5186E07DE
:10164000760F865D6D1C4E706D076D0F891C455DB4
:101650009B1C0D70521EF1D1514800210160F9848C
:101660004D4900E05FE04B68022213434B60BA73C0
:1016700059E04B4F3B1F1B685E403E60AC4214D2AA
:101680004E4863460355029B8354521C92B2019B01
:101690008354521C92B2009B8354521C4148CA840A
:1016A00080683C30888403B0F0BD002E88D1404A69
:1016B00052880095944672B6AA223E498A60552205
:1016C0008A6062B6009D6D1E002D20DD009B012406
:1016D00039490022DB07E4071B1906D0491C624682
:1016E00052070B78520F835401224C786B100ED0A6
:1016F0006546AD186F07891C7F0F6D1C0E786D074E
:10170000C4556D0F4C78921C46555B1EF0D1009964
:10171000491E05D4294A535C61444907490F435483
:101720001E48012181731C484F21016020494A78DD
:1017300002608A780260C978016003B0F0BDAC42F3
:1017400010D34368022293434360154A1378036021
:101750005378036093780360D27802600120887325
:1017600003B0F0BD154D104B2C5D1C700460AC5CDB
:101770005C70521C92B20460AC5C9C70521C92B2C1
:101780000460AC5CDC70521CCA8404601968181DCB
:101790004E40066003B0F0BD008000400000001025
:1017A0005800001000400140540000106400001078
:1017B0005000001000400040CF020010D002001086
:1017C0006CB72200E5C72400CBF72600FC482900AF
:1017D00073BD2B0048572E00B61831001604340094
:1017E000E71B3700CD623A0095DB3D0037894100A9
:1017F0007F7F7F7F7F7F7F7F7F7F7F7F7F7F7F7FF9
:101800007F7F7F7F7F7F7F7F7F7F7F7F7F7F7F7FE8
:101810007F7F7F7F7F7F7F7F7F7F7F7F7F7F7F7FD8
:101820007F7F7F7F7F7F7F7F7F7F7F7F7F7F7F7FC8
:101830007F7F7F7F7F7F7F7F7F7F7F7F7F7F7F7FB8
:101840007F7F7F7F7F7F7F7F7F7F7F7F7F7F7F7FA8
:101850007F7F7F7F7F7F7F7F7F7F7F7F7F7F7F7F98
:101860007F7F7F7F7F7F7F7F7F7F7F7F7F7F7F7F88
:101870007F7F7F7F7F7F7F7F7F7F7F7F7F7F7F7F78
:101880007F7F7F7F7F7F7F7F7F7F7F7F7F7F7F7F68
:101890007F7F7F7F7F7F7F7F7F7F7F7F7F7F7F7F58
:1018A0007F7F7F7F7F7F7F7F7F7F7F7F7F7F7F7F48
:1018B0007F7F7F7F7F7F7F7F7F7F7F7F7F7F7F7F38
:1018C0007F7F7F7F7F7F7F7F7F7F7F7F7F7F7F7F28
:1018D0007F7F7F7F7F7F7F7F7F7F7F7F7F7F7F7F18
:1018E0007F7F7F7F7F7F7F7F7F7F7F7F7F7F7F7F08
:1018F00080808080808080808080808080808080E8
:1019000080808080808080808080808080808080D7
:1019100080808080808080808080808080808080C7
:1019200080808080808080808080808080808080B7
:1019300080808080808080808080808080808080A7
:101940008080808080808080808080808080808097
:101950008080808080808080808080808080808087
:101960008080808080808080808080808080808077
:101970008080808080808080808080808080808067
:101980008080808080808080808080808080808057
:101990008080808080808080808080808080808047
:1019A0008080808080808080808080808080808037
:1019B0008080808080808080808080808080808027
:1019C0008080808080808080808080808080808017
:1019D0008080808080808080808080808080808007
:1019E00080808080808080808080808080808080F7
:1019F00025FFFFFEFFFFFFFF25FFFFFFFFFFFFFFAC
:101A0000FFFFFFFFFFFFFFFD46FFFFFFFFFFFFFEA2
:101A100042FFFFFFFFFFFFFE42FFFFFFFFFFFFFE52
:101A200046FFFFFFFFFFFFFFFFFFFFFFFFFFFFFD81
:101A300049FFFFFE45FFFFFE49FFFFFE45FFFFFF99
:101A4000FFFFFFFFFFFFFFFD78000500D5F08D14BD
:101A5000AF107A000500D5F08D14AF100000000023
:101A60000000000000000000000000000000000076
:101A70000000000000000000000000000000000066
:101A80000000000000000000000000000000000056
:101A90000000000000000000000000000000000046
:101AA0000000000000000000000000000000000036
:101AB0000000000000000000000000000000000026
:101AC0000000000000000000000000000000000016
:101AD0000000000000000000000000000000000006
:101AE00000000000000000000000000000000000F6
:101AF00000000000000000000000000000000000E6
:101B000000000000000000000000000000000000D5
:101B100000000000000000000000000000000000C5
:101B200000000000000000000000000000000000B5
:101B300000000000000000000000000000000000A5
:101B40000000000000000000000000000000000095
:101B50000000000000000000000000000000000085
:101B6000000000000002030405060700000000005A
:101B7000000000000809010A0B0C0D000E0F1011E7
:101B800000000000011201130101141516171819A5
:101B9000000000001A1B1C1D1E1F01202122230013
:101BA000000000002401252627010128292A2B2CCA
:101BB000000000002D01012E0101012F0000000096
:101BC000000000003001010101013132000000007D
:101BD00000000000003334013536370000000000FB
:101BE0000000000000003839003A3B00000000000F
:101BF000000000000000003C3D3E3F0040414243E9
:101C0000000000000000444546474800494A4B0098
:101C100000000000004C4D4E4F50000051525354F4
:101C200055560000005758595A5B5C005D2C5E5FAA
:101C30006061000000626364656667000000000088
:101C400000000000006801696A016B0000000000EC
:101C50000000000000006C6D6E6F000000000000CE
:101C6000000000000070717273740000000000003A
:101C70000000000075767778797A00007B7C0000A0
:101C8000000000007D7E7F80818200008384000050
:101C90000000000085868788898A8B8C8D8E2300C2
:101CA00000000000008F01019091929394952B2CDD
:101CB00000000000009601979801990000000000C4
:101CC00000000000009A019B019C9D0000000000A4
:101CD00000000000009E9FA0A1A2000000000000E4
:101CE000A3A4A50000A6A78C00000000000000002F
:101CF000A801A9A5A6AA01AB0000000000000000F1
:101D0000ACAD01A9AA01AEAF0000000000000000C8
:101D100000ACAD0101AEAF0000000000000000000B
:101D200000A6AA0101A9A500000000000000000013
:101D3000A6AA01AEAD01A9A50000000000000000A8
:101D4000B001AEAFACAD01B100000000000000007A
:101D50009EB2AF0000ACB3320000000000000000F3
:101D6000000000B4B500000000000000000000000A
:101D7000000000B6B70000000000000000000000F6
:101D80000000B8B9A0BA0000000000000000000088
:101D90000000BBBCBDBE0000000000000000000051
:101DA00000BF9C9DC0C1C2000000000000000000F8
:101DB000C3C4C50000C6C7C8000000000000000082
:101DC000C901CACBCBCC01CD00000000000000004F
:101DD000CECFCFCFCFCFCFD000000000000000008B
:101DE00000D1D2D3D4D5D6000000000000000000FE
:101DF00002D701D8D901DADB0000000000000000A2
:101E0000DC01DD0000DE01DF00000000000000005A
:101E1000E0E100000000E2E300000000000000003C
:101E2000E4E500000000E6E700000000000000001C
:101E3000E801E90000EA01EB0000000000000000FA
:101E4000ECED01EEEF01F0F10000000000000000F9
:101E500000F2F35B6EF4F5000000000000000000EB
:101E600000000000F8049484849404F8F8FC6C7C6E
:101E70007C6CFCF8E0F0F0E0F0F0E00080C0E0F016
:101E8000E0C08000C0C0F03838F0C0C0C0E0F0F85A
:101E9000F8F0E0C0000080C0C0800000FFFF7F3F7E
:101EA0003F7FFFFF00C060202060C000FF3F9FDF3A
:101EB000DF9F3FFF80C06074DC8C3C000078FC84B6
:101EC00084FC78000000FCFC14141C1C00FCFC14B6
:101ED0001414FCFCA0A0C07878C0A0A0FEFCF8F010
:101EE000E04040004040E0F0F8FCFE00001018FC2C
:101EF000FC18100000FCFC0000FCFC00387C44FCDA
:101F0000FC04FCFCC4EE3A1232E6C40000000000FF
:101F100000000000001018FCFC181000001018FC55
:101F2000FC181000000000FCFC000000808080A075
:101F3000E0C0800080C0E0A080808000C0C00000C1
:101F40000000000080C0E08080E0C0800080E0F001
:101F5000E080000030F0F0F0F0F030000000000011
:101F600000000000000038FCFC380000000E1E00DD
:101F7000001E0E0020F8F820F8F82000387C4447B6
:101F800047CC980030300080C060300080D87CE4BE
:101F9000BCD8400000101E0E000000000000F0F849
:101FA0000C0400000000040CF8F0000080A0E0C069
:101FB000C0E0A080008080E0E080800000000000A1
:101FC0000000000080808080808080000000000091
:101FD0000000000000000080C0603000F0F80CC479
:101FE000C40CF8F0001018FCFC000000080C84C4BD
:101FF000643C1800080C444444FCB800C0E0B098AD
:10200000FCFC80007C7C444444C48400F0F84C44D4
:1020100044C080000C0C0484C47C3C00B8FC4444E4
:1020200044FCB800387C444444FCF8000000003014
:102030003000000000000030300000000080C06070
:102040003018080000202020202020000008183030
:1020500060C08000181C04C4E43C1800F0F808C8F4
:10206000C8F8F000E0F0988C98F0E00004FCFC4424
:1020700044FCB800F0F80C04040C180004FCFC0448
:102080000CF8F00004FCFC44E40C1C0004FCFC44D0
:10209000E40C1C00F0F80C84848C9800FCFC40409C
:1020A00040FCFC00000004FCFC04000000000004F4
:1020B000FCFC040004FCFCC0E03C1C0004FCFC0430
:1020C00000000000FCFC38707038FCFCFCFC387030
:1020D000E0FCFC00F8FC040404FCF80004FCFC44F4
:1020E000447C3800F8FC040404FCF80004FCFC44C4
:1020F000C4FC3800183C6444C49C18001C0C04FC4C
:10210000FC040C1CFCFC000000FCFC00FCFC0000BF
:102110000000FCFCFCFC00808000FCFC0C1C30E09F
:10212000E0301C0C1C3C60C0C0603C1C1C0C84C417
:1021300064341C0C0000FCFC040400003870E0C097
:102140008000000000000404FCFC0000080C0603F2
:10215000060C08000000000000000000000003075B
:102160000400000000A0A0A0E0C0000004FCFC20CF
:1021700060C08000C0E020202060400080C060245B
:10218000FCFC0000C0E0A0A0A0E0C00040F8FC44BF
:102190000C180000C0E02020C0E0200004FCFC403F
:1021A00020E0C000000020ECEC0000000000000077
:1021B00020ECEC0004FCFC80C0602000000004FC6B
:1021C000FC000000E0E060C0C060E0C020E0C02093
:1021D00020E0C000C0E0202020E0C00020E0C020BF
:1021E00020E0C000C0E02020C0E0200020E0C0606F
:1021F00020E0C00040E0A020206040002020F8FC4B
:1022000020200000E0E00000E0E00000E0E000004E
:102210000000E0E0E0E000000000E0E02060C080BE
:1022200080C06020E0E0000000E0E000606020A0EE
:10223000E0602000004040F8BC040400000000BC46
:10224000BC000000000404BCF8404000080C040C72
:10225000080C040080C0603060C08000F0F80C04FE
:10226000040C1800E4E40000E4E40000C0E0A8ACC2
:10227000A6E2C00000A8ACA6ECC8000004A4A0A080
:10228000E4C4000000A2A6ACE8C0000000A4AEAA0E
:10229000EEC4000000E0F01010302000C0E8ACA652
:1022A000ACE8C000C4E4A0A0A0E4C400C0E2A6ACB6
:1022B000A8E0C000000424E0E004040000082CE6CC
:1022C000E60C0800000226ECE8000000C2E230182C
:1022D00030E2C200C0E2371537E2C00010F4F693D6
:1022E00091B03000002060C0E020E0C0F0F84C4425
:1022F000FCFC4400C0E82C262CE8C000C4E42020EC
:1023000020E4C400C0E2262C28E0C000E8EC060669
:10231000ECE80000E0E2060CE8E00000E4E4000085
:1023200000E4E400F2FA080808FAF200FAFA000001
:1023300000FAFA00F0F8080E0E08181020FCFE2231
:10234000060C0000444C58F0F0584C4402FEFE12BB
:1023500092DEEC80004040FCFE42460400A8ACA6A1
:10236000E2C00000000028ECE6020000C0E82C26D5
:1023700022E0C000E0E80C06E2E0000028ECC42CFB
:1023800028ECC400FAFB71E3C2FBF900004C5E527A
:102390005E5E5000004C5E525E4C00000080EC6CB3
:1023A00000000000C0C0404040404000404040406D
:1023B00040C0C0003E3E80C0603018003E3E80C03D
:1023C00060301800000000ECEC00000080C060A04D
:1023D000C06020002060C0A060C0800000AA00553E
:1023E00000AA0055AA55AA55AA55AA5555FFAAFFF5
:1023F00055FFAAFF000000FFFF000000808080FF63
:10240000FF000000A0A0A0FFFF0000008080FFFFF1
:1024100000FFFF008080808080808000A0A0A0E07E
:10242000E0000000A0A0BFBF00FFFF000000FFFF12
:1024300000FFFF00A0A0A0A020E0E000A0A0BFBF80
:1024400080FFFF008080FFFF80FFFF00A0A0A0FFB3
:10245000FF0000008080808080000000000000FFFE
:10246000FF808080808080FFFF80808080808080EF
:1024700080808080000000FFFF80808080808080DE
:1024800080808080808080FFFF808080000000FF4F
:10249000FFA0A0A00000FFFF00FFFF800000FFFFE3
:1024A00080BFBFA00000E0E020A0A0A0A0A0BFBF10
:1024B00080BFBFA0A0A0A0A020A0A0A00000FFFF00
:1024C00000BFBFA0A0A0A0A0A0A0A0A0A0A0BFBF30
:1024D00000BFBFA0A0A0A0BFBFA0A0A08080FFFFA2
:1024E00080FFFF80A0A0A0A0A0A0A0A080808080EE
:1024F000808080800000FFFF80FFFF80000000FFE1
:10250000FFA0A0A0000000E0E0A0A0A0000080804C
:10251000808080808080FFFF80FFFF80A0A0A0FFE0
:10252000FFA0A0A0808080FFFF00000000000080CE
:1025300080808080FFFFFFFFFFFFFFFF80808080A3
:1025400080808080FFFFFFFF00000000000000008F
:10255000FFFFFFFF7F7F7F7F7F7F7F7FC0E020E0E7
:10256000C0602000F8FC0444FCB80000FCFC04043B
:10257000041C1C0010F0F010F0F01000183868C8AF
:1025800088181800C0E020E0E020200000F0F000F3
:1025900000F0F000203010F0E030100000C8E83803
:1025A00038E8C800E0F0988898F0E00070F88C04F3
:1025B0008CF870000080C85C74E4C400C0E020E0C7
:1025C000E020E0C0C0E020E0E030F8C800F0F84CC7
:1025D00044440000F0F8080808F8F000909090904B
:1025E00090909000004040F0F0404000000008183B
:1025F000B0E040000040E0B018080000000000F823
:10260000FC041C18000000FFFF000000008080B0E8
:10261000B08080004060206040602000000C1E12EE
:102620001E0C000000000080800000000000000080
:102630000000000080808000FEFE0202027E7C021C
:102640007E7C000064765A4E6400000000F0F0F0DA
:10265000F0F000000000000000000000000000009A
:10266000000000000708080909080807070F0F0EF7
:102670000E0F0F070103070F0703010000010307F7
:10268000030100000101090E0E0901010001090FFB
:102690000F0901000000010303010000FFFFFEFC21
:1026A000FCFEFFFF0003060404060300FFFCF9FB29
:1026B000FBF9FCFF070F08080F0700000002020FDC
:1026C0000F0202000C0E0F07000000001C1F0F007D
:1026D000000E0F070202010F0F0102020F07030194
:1026E000000000000000000103070F0000010307C5
:1026F00007030100000D0D00000D0D000000000F8C
:102700000F000F0F08191312171D08000F0F0F0FDE
:102710000F0F0F0000090B0F0F0B09000000000F37
:102720000F0000000002060F0F060200000000026A
:102730000301000000010302000000000303020285
:102740000202020000010300000301000607070760
:102750000707060000000307030000000000000058
:10276000000000000000000D0D000000000000004F
:1027700000000000020F0F020F0F0200060C0838C5
:10278000380F07000C060301000C0C00070F0808A7
:10279000070F080000000000000000000000030711
:1027A0000C0800000000080C0703000000020301F1
:1027B0000103020000000003030000000000101EDF
:1027C0000E00000000000000000000000000000CEF
:1027D0000C0000000C0603010000000003070C08B9
:1027E000080C07030008080F0F0808000E0F09085F
:1027F000080C0C00040C0808080F07000000000873
:102800000F0F0800040C0808080F0700070F08083E
:10281000080F070000000F0F00000000070F080856
:10282000080F0700000808080C0703000000000656
:10283000060000000000080E060000000000010372
:10284000060C0800000101010101010000080C064E
:10285000030100000000000D0D000000070F080B31
:102860000B0B01000F0F0000000F0F00080F0F08E7
:10287000080F070003070C08080C0600080F0F08D4
:102880000C070300080F0F08080C0E00080F0F08B4
:102890000000000003070C0808070F000F0F0000DE
:1028A000000F0F000000080F0F080000070F0808B6
:1028B0000F070000080F0F00010F0E00080F0F0890
:1028C000080C0E000F0F000000000F0F0F0F00008C
:1028D000000F0F00070F0808080F0700080F0F0868
:1028E00000000000070F080E3C3F2700080F0F00F4
:1028F000000F0F00060E0808080F07000000080F61
:102900000F080000070F0808080F07000103060C56
:102910000C060301030F0E03030E0F030C0E03013D
:1029200001030E0C0000080F0F0800000E0F09082D
:1029300008080C0E00000F0F08080000000000013E
:1029400003070E00000008080F0F00000000000041
:102950000000000020202020202020200000000077
:1029600000000000070F0808070F0800000F0F08FD
:10297000080F0700070F0808080C0400070F0808D5
:10298000070F0800070F0808080C0400080F0F08BD
:1029900000000000276F48487F3F0000080F0F002D
:1029A000000F0F000000080F0F08000000307040FB
:1029B000407F3F00080F0F01030E0C000000080FBE
:1029C0000F0800000F0F000F0F000F0F000F0F0078
:1029D000000F0F00070F0808080F0700407F7F480F
:1029E000080F0700070F08487F7F4000080F0F08F7
:1029F00000000000040C09090B0E04000000070F82
:102A0000080C0400070F0808070F08000103060C54
:102A10000C060301070F0C07070C0F07080C060331
:102A200003060C08474F4848683F1F000C0E0B096F
:102A3000080C0C00000000070F0808000000000F41
:102A40000F0000000008080F070000000000000051
:102A500000000000070704040407070001232624E0
:102A60002C3E1300070F0808070F0800070F08087F
:102A7000080C0400070F0808070F0800070F0808D4
:102A8000070F0800070F0808070F0800070F0808BE
:102A9000070F080000011312161F0900070F08088E
:102AA000080C0400070F0808080C0400070F0808AA
:102AB000080C04000000080F0F0800000000080FB9
:102AC0000F0800000000080F0F0800000F0F0101A1
:102AD000010F0F000F0F0101010F0F00080F0F086A
:102AE000080C0C00060F090F070D09080F0F000056
:102AF0000F0F0800070F0808080F0700070F080846
:102B0000080F0700070F0808080F0700070F08083D
:102B1000070F0800070F0808070F0800074F48486D
:102B2000683F1F00070F0808080F0700070F080875
:102B3000080F07000103020E0E0203010C0F0F081D
:102B4000080C04000101010F0F010101080F0F081B
:102B500000070F081030203F1F000000070F080873
:102B6000070F08000000080F0F080000070F0808F3
:102B7000080F0700070F0808070F0800000F0F00D5
:102B8000000F0F000F0F0000010F0F0000000000EA
:102B9000000000000000000000000000070F08080F
:102BA000080E0600070700000000000000000000FB
:102BB0000007070006030124363A2E240603090CF9
:102BC0000A3F3F000000070F0F070000000103024B
:102BD00001030200020301020301000000AA0055E4
:102BE00000AA0055AA55AA55AA55AA5555FFAAFFED
:102BF00055FFAAFF000000FFFF000000000000FFDB
:102C0000FF000000000000FFFF0000000000FFFFC9
:102C100000FFFF000000FFFF00FFFF00000000FFBB
:102C2000FF0000000000FFFF00FFFF000000FFFFAB
:102C300000FFFF000000FFFF00FFFF00000000009A
:102C40000000000000000000000000000000000084
:102C500000000000000000FFFF0000000000000076
:102C6000000000000000000000000000000000FF65
:102C7000FF000000000000FFFF0000000000000057
:102C800000000000000000FFFF000000000000FF47
:102C9000FF0000000000FFFF00FFFF000000000039
:102CA000000000000000FFFF00FFFF000000000028
:102CB000000000000000FFFF00FFFF000000FFFF1A
:102CC00000FFFF0000000000000000000000FFFF08
:102CD00000FFFF00000000000000000000000000F6
:102CE00000000000000000FFFF0000000000FFFFE8
:102CF00000FFFF00000000000000000000000000D6
:102D000000000000000000FFFF0000000000FFFFC7
:102D100000FFFF000000FFFF00FFFF00000000FFBA
:102D2000FF0000000000000000000000000000FFA5
:102D3000FF000000FFFFFFFFFFFFFFFFFFFFFFFFA0
:102D4000FFFFFFFFFFFFFFFF00000000000000008B
:102D5000FFFFFFFF0000000000000000070F080F4A
:102D6000070C08000F0F0000080F07000F0F0000EE
:102D700000000000000F0F000F0F00000C0E0B09E9
:102D8000080C0C00070F080F07000000101F0F02AF
:102D9000020301000000000F0F00000000090B0EED
:102DA0000E0B090003070C080C070300080F0F00A7
:102DB0000F0F080000070F08080F070001030203A8
:102DC00003020301090F0703020203010003070CBA
:102DD000080800000F0F0000000F0F000404040497
:102DE00004040400080808090908080800080A0B78
:102DF00009080800000808090B0A0800000000FF85
:102E0000FF000000070F080F070000000000000689
:102E1000060000000203010302030100000000009D
:102E2000000000000000000101000000000000019F
:102E3000010000000003070C0F0F0000000000005D
:102E4000000000000000000000000000000707076D
:102E50000707000000000000000000000000000064
:102E600000000000FFFFFFFFFFFFFFFF000000006A
:102E700000C0E0F0F0F0F8F0F0E0C0000000FCFE70
:102E8000FFFFFFFFFFFFFEFCE000C0F0F8FCFCFCD2
:102E9000FCFCFCF8F000000000000000F0FCFCFE70
:102EA000FEFEFEFEFCF8E00000FFFFFF0000FF7FDB
:102EB0007F7F7F3F3F3F3F3F3F003F3F3F3F3F3FA1
:102EC0003F3F3F3F3F0000000000000002020202BF
:102ED000C2B28E8282828282820202000000106070
:102EE00004180000FF00000000000000FFFFFF00CA
:102EF00000FFFFFF0000F8FCFEFEFFFFFFFFFFFFEB
:102F0000FFFFFEFEFCF8F0000000000008040201D4
:102F1000FF40404040404040FF000000818141416F
:102F2000211109070105091121C101008F1F3F7FF0
:102F30007F7F7F3F3F9FC7E0C08F1F3F7F7F7F7FA7
:102F40003F3F9FC3E0F8F9F3E7E7E7E7E7E76727E5
:102F50008787C7C7C7C7E7E7E7E7E7FFFFFFFFFFC9
:102F6000F8C000000000008040301E1010101096C5
:102F70007006000000800000000000007FFFFFFFDF
:102F8000FEFEFFFFFFFEFEFFFFFFFFFFFFFFFFFF55
:102F9000FFFF1F07E1F8FEFFFFFFFFFFFFFFFFFF3F
:102FA000FFFF38000000018080404020100806012B
:102FB0000000000000000101010101010101010107
:102FC0000101000000073FFFFFFFFFFFFFFFFFFFC2
:102FD000FFEFC0FCFFFFFF7F1F07000000000000A5
:102FE000030F3F7FFFFFFFFF7F3F1F0F070301001E
:102FF0000000000000010307070F1F1F3F3F3F7F36
:103000007F7F7FFFFF7F7F7F7F7F3F3F3F1F1F1FB0
:103010000F0F07070301010000000000000000007F
:103020000000001CFEFFFFFFFFFFFCE0000000E0CF
:10303000F8FCFCFEFCFCF80000000000011FFFFF94
:10304000FFFFFFFFFEF00000000000000080FCFF1B
:10305000FFFFFFFFFF7F0300000000000202FAAA4B
:10306000ABAAFA0202F20302FA0202008082828212
:10307000828282E2A2928A86828080000000000022
:10308000C0C0E0E0E0C0810FFFFFFFFFFFFFFFF0E7
:1030900000000000F0FFFFFFFFFFFFFF0F00000038
:1030A0000000000000888B48281A0B080848884A4E
:1030B0003B000000000000000040807F0000FCFC9E
:1030C000FEFEFEFCF80000FFFFFFFFFFFFFF7F009A
:1030D000008F9F9F9F9F9F9F9F9E9E9E9F9F9F9FB2
:1030E0009F9FBF8300001010101010F00808080404
:1030F0000000000000000000404040404040C00090
:103100000000000000202020202020FE10101010C1
:103110001000000000007FFFFFFFFFFF7F00003F67
:10312000FFFFFFFFFFE1400E3F3F7F7F7F7F7F7FFD
:103130007F7F7F7F7F7F7FFFFFFFFFFFFFFEFCC062
:1031400000000000000101818141310F00000000FA
:103150002222222222227F0000000000000202021E
:10316000020202037F0101010101000000007CFC5A
:10317000FCF9FCFCFCFEFFFEFCFCFDFDFCFCFEFE85
:10318000FFFFFE7E1E86E2F0F8FCFEFEFEFEFFFF65
:10319000FFFFFFFFFFFFFFFFFE0000000000000336
:1031A0000F1F7FFFFFFFFFFFFFFF8780FCFFFFFF79
:1031B000FFFFFFFFFF7F3F0F010000000103070F2C
:1031C0000F1F1F3F3F7F7F7FFFFFFFFFFFFFFFFFBF
:1031D000FF7F7F7F3F3F1F1F0F0707030000000097
:1031E00000000080E0E0F0E0E0C00000000000002F
:1031F000F8FEFEFFFFFEFE00000000000080C0C0E1
:10320000C08080000000000000008080C0C080807E
:1032100000000007FFFFFFFFFFFFFC0000000000B1
:10322000FFFFFFFFFFFFFF00000000E0FEFFFFFFCA
:10323000FFFF3F00080888C8A8988FE8888888881A
:10324000880808000000000000043FFFFFFFFFFFA8
:10325000FEE0000003FFFFFFFFFFFFFE000000E0B5
:10326000FFFFFFFFFFFF070000C0FCFFFFFFFFFFA6
:103270007F0700000201003F000000FF0000102057
:103280001F00000000000000000000037FFFFFFFA0
:10329000FFFFFEF08000FFFFFFFFFFFFFFE0C0FF2A
:1032A000FFFFFFFFFFFF80C0F8FFFFFFFFFFFF0FE3
:1032B000000000000080C0C0E0E0E0E0E0C080006E
:1032C00000000000000000F000000000000030C41A
:1032D0000A04000000FFFFFFFFFFFFFFFF7F7F3FAB
:1032E0003F3F1F9F9F9F8180C0E0F0FCFFFFFFFFDB
:1032F000FF7F3F0F070300000000000020180700B9
:10330000000000000000000007380000003FFFFF41
:10331000FFFFFFFFFFFFFF3F0F87C3F1F8FCFCFE3D
:10332000FFFFFFFFFFFF1F03000000000000071F5B
:103330007FFFFFFFFFFF00E0FEFFFFFFFFFFFFFF3C
:10334000FFFF7F1F070100000000000000000000D9
:10335000000103070F1F1F3F3F7F7F7F7FFFFFFF9E
:10336000FFFFFFFFFF7F7F7F7F3F3F1F1F0F070391
:1033700001000000000000000080C0E0F0F8FCFE4A
:10338000FFFEFCF8F0E0C08000000000000000003C
:1033900080C0E0F0F8FCFEFFFEFCF8F010387CFE88
:1033A000FFFFFFFFFFFFFFFFFFFEFCF8F8FCFEFF43
:1033B000FFFFFFFFFFFFFFFFFE7C38100000000053
:1033C0000103070F1F3F7FFFFFFFFFFFFFFFFFFF0F
:1033D000FF7F3F1F0F07030100000000081C3E7F16
:1033E000FFFFFFFFFFFFFFFF7F3E1C080F1F3F7F18
:1033F000FF7F3F1F1F3F7FFF7F3F1F0F0000000029
:103400000080E0F0F0E080000000000000C0F0F874
:10341000FEFFFFFFFFFFFFFEF8F0C000000000000E
:1034200080E0F0FCFFFFFFFFFFFFFF7FFCF0E0808C
:1034300000000000C0F0F8FEFFFFFFFFFFFFFF3FAE
:103440000F0300000000030F3FFFFFFFFFFFFFFF20
:10345000FEF8F0C000000080E0F0FCFF000000007B
:10346000000001071F7FFFFFFFFFFFFFFFFCF0E0F1
:103470008000000000000000000000C0F0F8FEFF27
:10348000FFFFFFFFFFFF3F0F0301000000000103EC
:103490000F3FFFFFFFFFFFFFFFFEF8F0C00000003F
:1034A00000000000000080E0F0FCFFFFFBF8F8F8EF
:1034B000F8F8F8F8F8F8F8F8F8F8F8F8F8F8F8F88C
:1034C000F8F8F8FBFFFFFCF0E0800000080E0F0F9B
:1034D0000F0F0F0F0F0F0F0F0F0F0F0F0F0F0F0FFC
:1034E0000F0F0E080000000080C0E0E0F0F0F8F8D8
:1034F000FCFCFCFEFEFEFEFFFFFFFFFFFFFFFFFFE9
:10350000FFFEFEFEFEFCFCFCF8F8F0F0E0E0C08000
:1035100000000000F8FEFEFFFFFFFFFFFF7F7F7F40
:103520003F3F3F3F3F3F3F3F7F7F7FFFFFFFFFFF2B
:10353000FFFEFEF8F0E0C000000000000080F0FC9C
:10354000FFFFFFFF7F1F0F070301010000010103C1
:10355000070F1F7FFFFFFFFFFCF08000F8FFFFFF5A
:10356000FFFFFFFFFFFFFFFFFFFF0F01010FFFFF47
:10357000FFFFFFFFFFFFFFFFFFFFFFF81FFFFFFF42
:10358000FFFFFFFFFFFFFFFFFFFFF08080F0FFFF67
:10359000FFFFFFFFFFFFFFFFFFFFFF1F00010F3FC8
:1035A000FFFFFFFFFEF8F0E0C0808000008080C0D9
:1035B000E0F0F8FEFFFFFFFF3F0F010000000000FA
:1035C0000003070F1F7F7FFFFFFFFFFFFFFEFEFED1
:1035D000FCFCFCFCFCFCFCFCFEFEFEFFFFFFFFFF16
:1035E000FF7F7F1F0F0703000000000000000000A6
:1035F000010307070F0F1F1F3F3F3F7F7F3F3F3FE5
:103600001F1F0F0F0707030100000000000000004C
:1036100000000000000000000000000000000000AA
:10362000000000000000000000000000000000009A
:10363000000000000000000000000000000000008A
:10364000000000000000000000000000000000007A
:0C3650000000000000000000000000006E
:0400000500000301F3
:00000001FF
